{
  "contractName": "MorpheusNftManager",
  "abi": [
    {
      "inputs": [
        {
          "internalType": "string",
          "name": "name_",
          "type": "string"
        },
        {
          "internalType": "string",
          "name": "symbol_",
          "type": "string"
        },
        {
          "internalType": "uint256",
          "name": "chainId_",
          "type": "uint256"
        }
      ],
      "stateMutability": "nonpayable",
      "type": "constructor"
    },
    {
      "anonymous": false,
      "inputs": [
        {
          "indexed": true,
          "internalType": "address",
          "name": "owner",
          "type": "address"
        },
        {
          "indexed": true,
          "internalType": "address",
          "name": "approved",
          "type": "address"
        },
        {
          "indexed": true,
          "internalType": "uint256",
          "name": "tokenId",
          "type": "uint256"
        }
      ],
      "name": "Approval",
      "type": "event"
    },
    {
      "anonymous": false,
      "inputs": [
        {
          "indexed": true,
          "internalType": "address",
          "name": "owner",
          "type": "address"
        },
        {
          "indexed": true,
          "internalType": "address",
          "name": "operator",
          "type": "address"
        },
        {
          "indexed": false,
          "internalType": "bool",
          "name": "approved",
          "type": "bool"
        }
      ],
      "name": "ApprovalForAll",
      "type": "event"
    },
    {
      "anonymous": false,
      "inputs": [
        {
          "indexed": false,
          "internalType": "address",
          "name": "userAddress",
          "type": "address"
        },
        {
          "indexed": false,
          "internalType": "address payable",
          "name": "relayerAddress",
          "type": "address"
        },
        {
          "indexed": false,
          "internalType": "bytes",
          "name": "functionSignature",
          "type": "bytes"
        }
      ],
      "name": "MetaTransactionExecuted",
      "type": "event"
    },
    {
      "anonymous": false,
      "inputs": [
        {
          "indexed": true,
          "internalType": "address",
          "name": "previousOwner",
          "type": "address"
        },
        {
          "indexed": true,
          "internalType": "address",
          "name": "newOwner",
          "type": "address"
        }
      ],
      "name": "OwnershipTransferred",
      "type": "event"
    },
    {
      "anonymous": false,
      "inputs": [
        {
          "indexed": true,
          "internalType": "address",
          "name": "from",
          "type": "address"
        },
        {
          "indexed": true,
          "internalType": "address",
          "name": "to",
          "type": "address"
        },
        {
          "indexed": true,
          "internalType": "uint256",
          "name": "tokenId",
          "type": "uint256"
        }
      ],
      "name": "Transfer",
      "type": "event"
    },
    {
      "inputs": [
        {
          "internalType": "address",
          "name": "to",
          "type": "address"
        },
        {
          "internalType": "uint256",
          "name": "tokenId",
          "type": "uint256"
        }
      ],
      "name": "approve",
      "outputs": [],
      "stateMutability": "nonpayable",
      "type": "function"
    },
    {
      "inputs": [
        {
          "internalType": "address",
          "name": "",
          "type": "address"
        }
      ],
      "name": "authorized",
      "outputs": [
        {
          "internalType": "bool",
          "name": "",
          "type": "bool"
        }
      ],
      "stateMutability": "view",
      "type": "function"
    },
    {
      "inputs": [
        {
          "internalType": "address",
          "name": "owner",
          "type": "address"
        }
      ],
      "name": "balanceOf",
      "outputs": [
        {
          "internalType": "uint256",
          "name": "",
          "type": "uint256"
        }
      ],
      "stateMutability": "view",
      "type": "function"
    },
    {
      "inputs": [
        {
          "internalType": "address",
          "name": "userAddress",
          "type": "address"
        },
        {
          "internalType": "bytes",
          "name": "functionSignature",
          "type": "bytes"
        },
        {
          "internalType": "bytes32",
          "name": "sigR",
          "type": "bytes32"
        },
        {
          "internalType": "bytes32",
          "name": "sigS",
          "type": "bytes32"
        },
        {
          "internalType": "uint8",
          "name": "sigV",
          "type": "uint8"
        }
      ],
      "name": "executeMetaTransaction",
      "outputs": [
        {
          "internalType": "bytes",
          "name": "",
          "type": "bytes"
        }
      ],
      "stateMutability": "payable",
      "type": "function"
    },
    {
      "inputs": [
        {
          "internalType": "uint256",
          "name": "tokenId",
          "type": "uint256"
        }
      ],
      "name": "getApproved",
      "outputs": [
        {
          "internalType": "address",
          "name": "",
          "type": "address"
        }
      ],
      "stateMutability": "view",
      "type": "function"
    },
    {
      "inputs": [],
      "name": "getDomainSeparator",
      "outputs": [
        {
          "internalType": "bytes32",
          "name": "",
          "type": "bytes32"
        }
      ],
      "stateMutability": "view",
      "type": "function"
    },
    {
      "inputs": [
        {
          "internalType": "address",
          "name": "user",
          "type": "address"
        }
      ],
      "name": "getNonce",
      "outputs": [
        {
          "internalType": "uint256",
          "name": "nonce",
          "type": "uint256"
        }
      ],
      "stateMutability": "view",
      "type": "function"
    },
    {
      "inputs": [
        {
          "internalType": "address",
          "name": "owner",
          "type": "address"
        },
        {
          "internalType": "address",
          "name": "operator",
          "type": "address"
        }
      ],
      "name": "isApprovedForAll",
      "outputs": [
        {
          "internalType": "bool",
          "name": "",
          "type": "bool"
        }
      ],
      "stateMutability": "view",
      "type": "function"
    },
    {
      "inputs": [],
      "name": "name",
      "outputs": [
        {
          "internalType": "string",
          "name": "",
          "type": "string"
        }
      ],
      "stateMutability": "view",
      "type": "function"
    },
    {
      "inputs": [],
      "name": "owner",
      "outputs": [
        {
          "internalType": "address",
          "name": "",
          "type": "address"
        }
      ],
      "stateMutability": "view",
      "type": "function"
    },
    {
      "inputs": [
        {
          "internalType": "uint256",
          "name": "tokenId",
          "type": "uint256"
        }
      ],
      "name": "ownerOf",
      "outputs": [
        {
          "internalType": "address",
          "name": "",
          "type": "address"
        }
      ],
      "stateMutability": "view",
      "type": "function"
    },
    {
      "inputs": [],
      "name": "renounceOwnership",
      "outputs": [],
      "stateMutability": "nonpayable",
      "type": "function"
    },
    {
      "inputs": [
        {
          "internalType": "address",
          "name": "from",
          "type": "address"
        },
        {
          "internalType": "address",
          "name": "to",
          "type": "address"
        },
        {
          "internalType": "uint256",
          "name": "tokenId",
          "type": "uint256"
        }
      ],
      "name": "safeTransferFrom",
      "outputs": [],
      "stateMutability": "nonpayable",
      "type": "function"
    },
    {
      "inputs": [
        {
          "internalType": "address",
          "name": "from",
          "type": "address"
        },
        {
          "internalType": "address",
          "name": "to",
          "type": "address"
        },
        {
          "internalType": "uint256",
          "name": "tokenId",
          "type": "uint256"
        },
        {
          "internalType": "bytes",
          "name": "_data",
          "type": "bytes"
        }
      ],
      "name": "safeTransferFrom",
      "outputs": [],
      "stateMutability": "nonpayable",
      "type": "function"
    },
    {
      "inputs": [
        {
          "internalType": "address",
          "name": "operator",
          "type": "address"
        },
        {
          "internalType": "bool",
          "name": "approved",
          "type": "bool"
        }
      ],
      "name": "setApprovalForAll",
      "outputs": [],
      "stateMutability": "nonpayable",
      "type": "function"
    },
    {
      "inputs": [
        {
          "internalType": "bytes4",
          "name": "interfaceId",
          "type": "bytes4"
        }
      ],
      "name": "supportsInterface",
      "outputs": [
        {
          "internalType": "bool",
          "name": "",
          "type": "bool"
        }
      ],
      "stateMutability": "view",
      "type": "function"
    },
    {
      "inputs": [],
      "name": "symbol",
      "outputs": [
        {
          "internalType": "string",
          "name": "",
          "type": "string"
        }
      ],
      "stateMutability": "view",
      "type": "function"
    },
    {
      "inputs": [],
      "name": "tokenId",
      "outputs": [
        {
          "internalType": "uint256",
          "name": "",
          "type": "uint256"
        }
      ],
      "stateMutability": "view",
      "type": "function"
    },
    {
      "inputs": [
        {
          "internalType": "uint256",
          "name": "tokenId",
          "type": "uint256"
        }
      ],
      "name": "tokenURI",
      "outputs": [
        {
          "internalType": "string",
          "name": "",
          "type": "string"
        }
      ],
      "stateMutability": "view",
      "type": "function"
    },
    {
      "inputs": [
        {
          "internalType": "address",
          "name": "from",
          "type": "address"
        },
        {
          "internalType": "address",
          "name": "to",
          "type": "address"
        },
        {
          "internalType": "uint256",
          "name": "tokenId",
          "type": "uint256"
        }
      ],
      "name": "transferFrom",
      "outputs": [],
      "stateMutability": "nonpayable",
      "type": "function"
    },
    {
      "inputs": [
        {
          "internalType": "address",
          "name": "newOwner",
          "type": "address"
        }
      ],
      "name": "transferOwnership",
      "outputs": [],
      "stateMutability": "nonpayable",
      "type": "function"
    },
    {
      "inputs": [
        {
          "internalType": "string",
          "name": "tokenURI",
          "type": "string"
        }
      ],
      "name": "createCollectible",
      "outputs": [
        {
          "internalType": "uint256",
          "name": "",
          "type": "uint256"
        }
      ],
      "stateMutability": "nonpayable",
      "type": "function"
    },
    {
      "inputs": [
        {
          "internalType": "address",
          "name": "auth",
          "type": "address"
        }
      ],
      "name": "addAuthorized",
      "outputs": [],
      "stateMutability": "nonpayable",
      "type": "function"
    },
    {
      "inputs": [
        {
          "internalType": "address[]",
          "name": "authList",
          "type": "address[]"
        }
      ],
      "name": "addAuthorizedBatch",
      "outputs": [],
      "stateMutability": "nonpayable",
      "type": "function"
    },
    {
      "inputs": [
        {
          "internalType": "address",
          "name": "auth",
          "type": "address"
        }
      ],
      "name": "clearAuthorized",
      "outputs": [],
      "stateMutability": "nonpayable",
      "type": "function"
    },
    {
      "inputs": [
        {
          "internalType": "address",
          "name": "auth",
          "type": "address"
        }
      ],
      "name": "checkAuthorized",
      "outputs": [
        {
          "internalType": "bool",
          "name": "",
          "type": "bool"
        }
      ],
      "stateMutability": "view",
      "type": "function"
    }
  ],
  "bytecode": "0x60806040526000600a553480156200001657600080fd5b5060405162002925380380620029258339810160408190526200003991620002c6565b6040518060400160405280600f81526020016e6d6f7270686575736c6162732e696f60881b815250604051806040016040528060018152602001603160f81b8152508285856000620000906200017160201b60201c565b600080546001600160a01b0319166001600160a01b0383169081178255604051929350917f8be0079c531659141344cd1fd0a4f28419497f9722a3daafe3b4186f6b6457e0908290a3508151620000ef90600190602085019062000175565b5080516200010590600290602084019062000175565b505050604051806080016040528060528152602001620028d36052913980516020918201208451858301208451858401206040516200014994869130910162000336565b60405160208183030381529060405280519060200120600881905550505050505050620003b5565b3390565b828054620001839062000362565b90600052602060002090601f016020900481019282620001a75760008555620001f2565b82601f10620001c257805160ff1916838001178555620001f2565b82800160010185558215620001f2579182015b82811115620001f2578251825591602001919060010190620001d5565b506200020092915062000204565b5090565b5b8082111562000200576000815560010162000205565b600082601f8301126200022c578081fd5b81516001600160401b03808211156200024957620002496200039f565b6040516020601f8401601f19168201810183811183821017156200027157620002716200039f565b604052838252858401810187101562000288578485fd5b8492505b83831015620002ab57858301810151828401820152918201916200028c565b83831115620002bc57848185840101525b5095945050505050565b600080600060608486031215620002db578283fd5b83516001600160401b0380821115620002f2578485fd5b62000300878388016200021b565b9450602086015191508082111562000316578384fd5b5062000325868287016200021b565b925050604084015190509250925092565b9485526020850193909352604084019190915260608301526001600160a01b0316608082015260a00190565b6002810460018216806200037757607f821691505b602082108114156200039957634e487b7160e01b600052602260045260246000fd5b50919050565b634e487b7160e01b600052604160045260246000fd5b61250e80620003c56000396000f3fe6080604052600436106101815760003560e01c8063715018a6116100d1578063b91816111161008a578063e3055f8e11610064578063e3055f8e14610441578063e985e9c514610461578063ed24911d14610481578063f2fde38b1461049657610181565b8063b9181611146103e1578063c87b56dd14610401578063cf1c316a1461042157610181565b8063715018a6146103425780638da5cb5b146103575780638e3b5b031461036c57806395d89b411461038c578063a22cb465146103a1578063b88d4fde146103c157610181565b806317d70f7c1161013e57806331f1f3c31161011857806331f1f3c3146102c257806342842e0e146102e25780636352211e1461030257806370a082311461032257610181565b806317d70f7c1461026057806323b872dd146102825780632d0335ab146102a257610181565b806301ffc9a71461018657806303bea2d3146101bc57806306fdde03146101de578063081812fc14610200578063095ea7b31461022d5780630c53c51c1461024d575b600080fd5b34801561019257600080fd5b506101a66101a1366004611abb565b6104b6565b6040516101b39190611ca0565b60405180910390f35b3480156101c857600080fd5b506101dc6101d7366004611844565b6104fe565b005b3480156101ea57600080fd5b506101f3610567565b6040516101b39190611cf6565b34801561020c57600080fd5b5061022061021b366004611b39565b6105fa565b6040516101b39190611c1a565b34801561023957600080fd5b506101dc6102483660046119e4565b61063d565b6101f361025b36600461196b565b6106d5565b34801561026c57600080fd5b50610275610855565b6040516101b39190611cab565b34801561028e57600080fd5b506101dc61029d366004611890565b61085b565b3480156102ae57600080fd5b506102756102bd366004611844565b610893565b3480156102ce57600080fd5b506102756102dd366004611af3565b6108ae565b3480156102ee57600080fd5b506101dc6102fd366004611890565b61095c565b34801561030e57600080fd5b5061022061031d366004611b39565b610977565b34801561032e57600080fd5b5061027561033d366004611844565b6109ac565b34801561034e57600080fd5b506101dc6109f0565b34801561036357600080fd5b50610220610a79565b34801561037857600080fd5b506101dc610387366004611a0d565b610a88565b34801561039857600080fd5b506101f3610b19565b3480156103ad57600080fd5b506101dc6103bc366004611931565b610b28565b3480156103cd57600080fd5b506101dc6103dc3660046118cb565b610bf6565b3480156103ed57600080fd5b506101a66103fc366004611844565b610c35565b34801561040d57600080fd5b506101f361041c366004611b39565b610c4a565b34801561042d57600080fd5b506101dc61043c366004611844565b610d6b565b34801561044d57600080fd5b506101a661045c366004611844565b610dce565b34801561046d57600080fd5b506101a661047c36600461185e565b610e22565b34801561048d57600080fd5b50610275610e50565b3480156104a257600080fd5b506101dc6104b1366004611844565b610e56565b60006001600160e01b031982166380ac58cd60e01b14806104e757506001600160e01b03198216635b5e139f60e01b145b806104f657506104f682610f16565b90505b919050565b610506610a79565b6001600160a01b0316610517610f2f565b6001600160a01b0316146105465760405162461bcd60e51b815260040161053d90611e0d565b60405180910390fd5b6001600160a01b03166000908152600b60205260409020805460ff19169055565b606060018054610576906123d0565b80601f01602080910402602001604051908101604052809291908181526020018280546105a2906123d0565b80156105ef5780601f106105c4576101008083540402835291602001916105ef565b820191906000526020600020905b8154815290600101906020018083116105d257829003601f168201915b505050505090505b90565b600061060582610f8b565b6106215760405162461bcd60e51b815260040161053d9061214b565b506000908152600560205260409020546001600160a01b031690565b600061064882610977565b9050806001600160a01b0316836001600160a01b0316141561067c5760405162461bcd60e51b815260040161053d906122a5565b806001600160a01b031661068e610fa8565b6001600160a01b031614806106aa57506106aa8161047c610fa8565b6106c65760405162461bcd60e51b815260040161053d90611f87565b6106d08383610fac565b505050565b60408051606081810183526001600160a01b03881660008181526009602090815290859020548452830152918101869052610713878287878761101a565b61072f5760405162461bcd60e51b815260040161053d90612215565b6001600160a01b0387166000908152600960205260409020546107539060016110c0565b6001600160a01b0388166000908152600960205260409081902091909155517f5845892132946850460bff5a0083f71031bc5bf9aadcd40f1de79423eac9b10b906107a390899033908a90611c2e565b60405180910390a1600080306001600160a01b0316888a6040516020016107cb929190611b99565b60408051601f19818403018152908290526107e591611b7d565b6000604051808303816000865af19150503d8060008114610822576040519150601f19603f3d011682016040523d82523d6000602084013e610827565b606091505b5091509150816108495760405162461bcd60e51b815260040161053d90611dd6565b98975050505050505050565b600a5481565b61086c610866610fa8565b826110d3565b6108885760405162461bcd60e51b815260040161053d906122e6565b6106d0838383611150565b6001600160a01b031660009081526009602052604090205490565b60006108b8610a79565b6001600160a01b03166108c9610f2f565b6001600160a01b031614806109085750600b60006108e5610f2f565b6001600160a01b0316815260208101919091526040016000205460ff1615156001145b6109245760405162461bcd60e51b815260040161053d90611d09565b600a54610932906001612361565b600a55610948610940610f2f565b600a5461127d565b610954600a548361135c565b5050600a5490565b6106d083838360405180602001604052806000815250610bf6565b6000818152600360205260408120546001600160a01b0316806104f65760405162461bcd60e51b815260040161053d9061202e565b60006001600160a01b0382166109d45760405162461bcd60e51b815260040161053d90611fe4565b506001600160a01b031660009081526004602052604090205490565b6109f8610fa8565b6001600160a01b0316610a09610a79565b6001600160a01b031614610a2f5760405162461bcd60e51b815260040161053d90612197565b600080546040516001600160a01b03909116907f8be0079c531659141344cd1fd0a4f28419497f9722a3daafe3b4186f6b6457e0908390a3600080546001600160a01b0319169055565b6000546001600160a01b031690565b610a90610a79565b6001600160a01b0316610aa1610f2f565b6001600160a01b031614610ac75760405162461bcd60e51b815260040161053d90611e0d565b60005b8151811015610b1557610b03828281518110610af657634e487b7160e01b600052603260045260246000fd5b6020026020010151610d6b565b80610b0d8161240b565b915050610aca565b5050565b606060028054610576906123d0565b610b30610fa8565b6001600160a01b0316826001600160a01b03161415610b615760405162461bcd60e51b815260040161053d90611ebf565b8060066000610b6e610fa8565b6001600160a01b03908116825260208083019390935260409182016000908120918716808252919093529120805460ff191692151592909217909155610bb2610fa8565b6001600160a01b03167f17307eab39ab6107e8899845ad3d59bd9653f200f220920489ca2b5937696c3183604051610bea9190611ca0565b60405180910390a35050565b610c07610c01610fa8565b836110d3565b610c235760405162461bcd60e51b815260040161053d906122e6565b610c2f848484846113a0565b50505050565b600b6020526000908152604090205460ff1681565b6060610c5582610f8b565b610c715760405162461bcd60e51b815260040161053d906120fa565b60008281526007602052604081208054610c8a906123d0565b80601f0160208091040260200160405190810160405280929190818152602001828054610cb6906123d0565b8015610d035780601f10610cd857610100808354040283529160200191610d03565b820191906000526020600020905b815481529060010190602001808311610ce657829003601f168201915b505050505090506000610d146113d3565b9050805160001415610d28575090506104f9565b815115610d5a578082604051602001610d42929190611bd0565b604051602081830303815290604052925050506104f9565b610d63846113e5565b949350505050565b610d73610a79565b6001600160a01b0316610d84610f2f565b6001600160a01b031614610daa5760405162461bcd60e51b815260040161053d90611e0d565b6001600160a01b03166000908152600b60205260409020805460ff19166001179055565b6000610dd8610a79565b6001600160a01b0316610de9610f2f565b6001600160a01b03161415610e00575060016104f9565b506001600160a01b0381166000908152600b602052604090205460ff166104f9565b6001600160a01b03918216600090815260066020908152604080832093909416825291909152205460ff1690565b60085490565b610e5e610fa8565b6001600160a01b0316610e6f610a79565b6001600160a01b031614610e955760405162461bcd60e51b815260040161053d90612197565b6001600160a01b038116610ebb5760405162461bcd60e51b815260040161053d90611d90565b600080546040516001600160a01b03808516939216917f8be0079c531659141344cd1fd0a4f28419497f9722a3daafe3b4186f6b6457e091a3600080546001600160a01b0319166001600160a01b0392909216919091179055565b6001600160e01b031981166301ffc9a760e01b14919050565b600033301415610f8657600080368080601f0160208091040260200160405190810160405280939291908181526020018383808284376000920191909152505050503601516001600160a01b031691506105f79050565b503390565b6000908152600360205260409020546001600160a01b0316151590565b3390565b600081815260056020526040902080546001600160a01b0319166001600160a01b0384169081179091558190610fe182610977565b6001600160a01b03167f8c5be1e5ebec7d5bd14f71427d1e84f3dd0314c0f7b2291e5b200ac8c7c3b92560405160405180910390a45050565b60006001600160a01b0386166110425760405162461bcd60e51b815260040161053d90611f42565b600161105561105087611467565b6114c5565b838686604051600081526020016040526040516110759493929190611cd8565b6020604051602081039080840390855afa158015611097573d6000803e3d6000fd5b505050602060405103516001600160a01b0316866001600160a01b031614905095945050505050565b60006110cc8284612361565b9392505050565b60006110de82610f8b565b6110fa5760405162461bcd60e51b815260040161053d90611ef6565b600061110583610977565b9050806001600160a01b0316846001600160a01b031614806111405750836001600160a01b0316611135846105fa565b6001600160a01b0316145b80610d635750610d638185610e22565b826001600160a01b031661116382610977565b6001600160a01b0316146111895760405162461bcd60e51b815260040161053d906121cc565b6001600160a01b0382166111af5760405162461bcd60e51b815260040161053d90611e7b565b6111ba8383836106d0565b6111c5600082610fac565b6001600160a01b03831660009081526004602052604081208054600192906111ee90849061238d565b90915550506001600160a01b038216600090815260046020526040812080546001929061121c908490612361565b909155505060008181526003602052604080822080546001600160a01b0319166001600160a01b0386811691821790925591518493918716917fddf252ad1be2c89b69c2b068fc378daa952ba7f163c4a11628f55a4df523b3ef91a4505050565b6001600160a01b0382166112a35760405162461bcd60e51b815260040161053d906120c5565b6112ac81610f8b565b156112c95760405162461bcd60e51b815260040161053d90611e44565b6112d5600083836106d0565b6001600160a01b03821660009081526004602052604081208054600192906112fe908490612361565b909155505060008181526003602052604080822080546001600160a01b0319166001600160a01b03861690811790915590518392907fddf252ad1be2c89b69c2b068fc378daa952ba7f163c4a11628f55a4df523b3ef908290a45050565b61136582610f8b565b6113815760405162461bcd60e51b815260040161053d90612077565b600082815260076020908152604090912082516106d09284019061171d565b6113ab848484611150565b6113b7848484846114e1565b610c2f5760405162461bcd60e51b815260040161053d90611d3e565b60408051602081019091526000815290565b60606113f082610f8b565b61140c5760405162461bcd60e51b815260040161053d90612256565b60006114166113d3565b9050600081511161143657604051806020016040528060008152506110cc565b80611440846115fc565b604051602001611451929190611bd0565b6040516020818303038152906040529392505050565b600060405180608001604052806043815260200161249660439139805160209182012083518483015160408087015180519086012090516114a89501611cb4565b604051602081830303815290604052805190602001209050919050565b60006114cf610e50565b826040516020016114a8929190611bff565b60006114f5846001600160a01b0316611717565b156115f157836001600160a01b031663150b7a02611511610fa8565b8786866040518563ffffffff1660e01b81526004016115339493929190611c63565b602060405180830381600087803b15801561154d57600080fd5b505af192505050801561157d575060408051601f3d908101601f1916820190925261157a91810190611ad7565b60015b6115d7573d8080156115ab576040519150601f19603f3d011682016040523d82523d6000602084013e6115b0565b606091505b5080516115cf5760405162461bcd60e51b815260040161053d90611d3e565b805181602001fd5b6001600160e01b031916630a85bd0160e11b149050610d63565b506001949350505050565b60608161162157506040805180820190915260018152600360fc1b60208201526104f9565b8160005b811561164b57806116358161240b565b91506116449050600a83612379565b9150611625565b60008167ffffffffffffffff81111561167457634e487b7160e01b600052604160045260246000fd5b6040519080825280601f01601f19166020018201604052801561169e576020820181803683370190505b5090505b8415610d63576116b360018361238d565b91506116c0600a86612426565b6116cb906030612361565b60f81b8183815181106116ee57634e487b7160e01b600052603260045260246000fd5b60200101906001600160f81b031916908160001a905350611710600a86612379565b94506116a2565b3b151590565b828054611729906123d0565b90600052602060002090601f01602090048101928261174b5760008555611791565b82601f1061176457805160ff1916838001178555611791565b82800160010185558215611791579182015b82811115611791578251825591602001919060010190611776565b5061179d9291506117a1565b5090565b5b8082111561179d57600081556001016117a2565b600067ffffffffffffffff8311156117d0576117d0612466565b6117e3601f8401601f1916602001612337565b90508281528383830111156117f757600080fd5b828260208301376000602084830101529392505050565b80356001600160a01b03811681146104f957600080fd5b600082601f830112611835578081fd5b6110cc838335602085016117b6565b600060208284031215611855578081fd5b6110cc8261180e565b60008060408385031215611870578081fd5b6118798361180e565b91506118876020840161180e565b90509250929050565b6000806000606084860312156118a4578081fd5b6118ad8461180e565b92506118bb6020850161180e565b9150604084013590509250925092565b600080600080608085870312156118e0578081fd5b6118e98561180e565b93506118f76020860161180e565b925060408501359150606085013567ffffffffffffffff811115611919578182fd5b61192587828801611825565b91505092959194509250565b60008060408385031215611943578182fd5b61194c8361180e565b915060208301358015158114611960578182fd5b809150509250929050565b600080600080600060a08688031215611982578081fd5b61198b8661180e565b9450602086013567ffffffffffffffff8111156119a6578182fd5b6119b288828901611825565b9450506040860135925060608601359150608086013560ff811681146119d6578182fd5b809150509295509295909350565b600080604083850312156119f6578182fd5b6119ff8361180e565b946020939093013593505050565b60006020808385031215611a1f578182fd5b823567ffffffffffffffff80821115611a36578384fd5b818501915085601f830112611a49578384fd5b813581811115611a5b57611a5b612466565b8381029150611a6b848301612337565b8181528481019084860184860187018a1015611a85578788fd5b8795505b83861015611aae57611a9a8161180e565b835260019590950194918601918601611a89565b5098975050505050505050565b600060208284031215611acc578081fd5b81356110cc8161247c565b600060208284031215611ae8578081fd5b81516110cc8161247c565b600060208284031215611b04578081fd5b813567ffffffffffffffff811115611b1a578182fd5b8201601f81018413611b2a578182fd5b610d63848235602084016117b6565b600060208284031215611b4a578081fd5b5035919050565b60008151808452611b698160208601602086016123a4565b601f01601f19169290920160200192915050565b60008251611b8f8184602087016123a4565b9190910192915050565b60008351611bab8184602088016123a4565b60609390931b6bffffffffffffffffffffffff19169190920190815260140192915050565b60008351611be28184602088016123a4565b835190830190611bf68183602088016123a4565b01949350505050565b61190160f01b81526002810192909252602282015260420190565b6001600160a01b0391909116815260200190565b6001600160a01b03848116825283166020820152606060408201819052600090611c5a90830184611b51565b95945050505050565b6001600160a01b0385811682528416602082015260408101839052608060608201819052600090611c9690830184611b51565b9695505050505050565b901515815260200190565b90815260200190565b93845260208401929092526001600160a01b03166040830152606082015260800190565b93845260ff9290921660208401526040830152606082015260800190565b6000602082526110cc6020830184611b51565b6020808252818101527f4d6f7270686575734e66744d616e616765723a20756e617574686f72697a6564604082015260600190565b60208082526032908201527f4552433732313a207472616e7366657220746f206e6f6e20455243373231526560408201527131b2b4bb32b91034b6b83632b6b2b73a32b960711b606082015260800190565b60208082526026908201527f4f776e61626c653a206e6577206f776e657220697320746865207a65726f206160408201526564647265737360d01b606082015260800190565b6020808252601c908201527f46756e6374696f6e2063616c6c206e6f74207375636365737366756c00000000604082015260600190565b6020808252601d908201527f4d6f7270686575734e66744d616e616765723a206e6f74206f776e6572000000604082015260600190565b6020808252601c908201527f4552433732313a20746f6b656e20616c7265616479206d696e74656400000000604082015260600190565b60208082526024908201527f4552433732313a207472616e7366657220746f20746865207a65726f206164646040820152637265737360e01b606082015260800190565b60208082526019908201527f4552433732313a20617070726f766520746f2063616c6c657200000000000000604082015260600190565b6020808252602c908201527f4552433732313a206f70657261746f7220717565727920666f72206e6f6e657860408201526b34b9ba32b73a103a37b5b2b760a11b606082015260800190565b60208082526025908201527f4e61746976654d6574615472616e73616374696f6e3a20494e56414c49445f5360408201526424a3a722a960d91b606082015260800190565b60208082526038908201527f4552433732313a20617070726f76652063616c6c6572206973206e6f74206f7760408201527f6e6572206e6f7220617070726f76656420666f7220616c6c0000000000000000606082015260800190565b6020808252602a908201527f4552433732313a2062616c616e636520717565727920666f7220746865207a65604082015269726f206164647265737360b01b606082015260800190565b60208082526029908201527f4552433732313a206f776e657220717565727920666f72206e6f6e657869737460408201526832b73a103a37b5b2b760b91b606082015260800190565b6020808252602e908201527f45524337323155524953746f726167653a2055524920736574206f66206e6f6e60408201526d32bc34b9ba32b73a103a37b5b2b760911b606082015260800190565b6020808252818101527f4552433732313a206d696e7420746f20746865207a65726f2061646472657373604082015260600190565b60208082526031908201527f45524337323155524953746f726167653a2055524920717565727920666f72206040820152703737b732bc34b9ba32b73a103a37b5b2b760791b606082015260800190565b6020808252602c908201527f4552433732313a20617070726f76656420717565727920666f72206e6f6e657860408201526b34b9ba32b73a103a37b5b2b760a11b606082015260800190565b6020808252818101527f4f776e61626c653a2063616c6c6572206973206e6f7420746865206f776e6572604082015260600190565b60208082526029908201527f4552433732313a207472616e73666572206f6620746f6b656e2074686174206960408201526839903737ba1037bbb760b91b606082015260800190565b60208082526021908201527f5369676e657220616e64207369676e617475726520646f206e6f74206d6174636040820152600d60fb1b606082015260800190565b6020808252602f908201527f4552433732314d657461646174613a2055524920717565727920666f72206e6f60408201526e3732bc34b9ba32b73a103a37b5b2b760891b606082015260800190565b60208082526021908201527f4552433732313a20617070726f76616c20746f2063757272656e74206f776e656040820152603960f91b606082015260800190565b60208082526031908201527f4552433732313a207472616e736665722063616c6c6572206973206e6f74206f6040820152701ddb995c881b9bdc88185c1c1c9bdd9959607a1b606082015260800190565b60405181810167ffffffffffffffff8111828210171561235957612359612466565b604052919050565b600082198211156123745761237461243a565b500190565b60008261238857612388612450565b500490565b60008282101561239f5761239f61243a565b500390565b60005b838110156123bf5781810151838201526020016123a7565b83811115610c2f5750506000910152565b6002810460018216806123e457607f821691505b6020821081141561240557634e487b7160e01b600052602260045260246000fd5b50919050565b600060001982141561241f5761241f61243a565b5060010190565b60008261243557612435612450565b500690565b634e487b7160e01b600052601160045260246000fd5b634e487b7160e01b600052601260045260246000fd5b634e487b7160e01b600052604160045260246000fd5b6001600160e01b03198116811461249257600080fd5b5056fe4d6574615472616e73616374696f6e2875696e74323536206e6f6e63652c616464726573732066726f6d2c62797465732066756e6374696f6e5369676e617475726529a2646970667358221220929f44e87cd40af3e8c9ec7145b99cf02af14387fcc499b216d935d261c25f2d64736f6c63430008000033454950373132446f6d61696e28737472696e67206e616d652c737472696e672076657273696f6e2c75696e7432353620636861696e49642c6164647265737320766572696679696e67436f6e747261637429",
  "immutableReferences": {},
  "source": "// SPDX-License-Identifier: MIT\n\npragma solidity ^0.8.0;\n\nimport \"@openzeppelin/contracts/token/ERC721/extensions/ERC721URIStorage.sol\";\nimport \"@openzeppelin/contracts/access/Ownable.sol\";\nimport \"./EIP712MetaTransaction.sol\";\n\ncontract MorpheusNftManager is Ownable, ERC721URIStorage, EIP712MetaTransaction {\n    \n    string private constant DOMAIN_NAME = \"morpheuslabs.io\";\n    string private constant DOMAIN_VERSION = \"1\";\n\n    uint256 public tokenId = 0;\n    \n    // Authorized list\n    mapping(address => bool) public authorized;\n    \n    constructor(string memory name_, string memory symbol_, uint256 chainId_) \n        ERC721(name_, symbol_) \n        EIP712Base(DOMAIN_NAME, DOMAIN_VERSION, chainId_) {\n    }\n\n    modifier isAuthorized() {\n        require(\n            msgSender() == owner() || authorized[msgSender()] == true, \n            \"MorpheusNftManager: unauthorized\"\n        );\n        _;\n    }\n\n    modifier isOwner() {\n        require(\n            msgSender() == owner(), \n            \"MorpheusNftManager: not owner\"\n        );\n        _;\n    }\n\n    function createCollectible(string memory tokenURI) public isAuthorized returns (uint256) {\n        tokenId = tokenId + 1;\n        _mint(msgSender(), tokenId);\n        _setTokenURI(tokenId, tokenURI);\n        return tokenId;\n    }\n\n    function addAuthorized(address auth) public isOwner {\n        authorized[auth] = true;\n    }\n\n    function addAuthorizedBatch(address[] memory authList) public isOwner {\n        for (uint256 i = 0; i < authList.length; i++) {\n            addAuthorized(authList[i]);\n        }\n    }\n\n    function clearAuthorized(address auth) public isOwner {\n        authorized[auth] = false;\n    }\n\n    function checkAuthorized(address auth) public view returns (bool) {\n        if (msgSender() == owner()) {\n            return true;\n        } else {\n            return authorized[auth];\n        }\n    }\n}\n",
  "sourcePath": "/home/trung/Work/reference/morphe/task/dApp/ml-NFT-tool/erc721/contracts/MorpheusNftManager.sol",
  "compiler": {
    "name": "solc",
    "version": "0.8.0+commit.c7dfd78e.Emscripten.clang"
  },
  "schemaVersion": "3.3.4",
  "updatedAt": "2021-04-19T13:17:48.110Z",
  "devdoc": {
    "kind": "dev",
    "methods": {
      "approve(address,uint256)": {
        "details": "See {IERC721-approve}."
      },
      "balanceOf(address)": {
        "details": "See {IERC721-balanceOf}."
      },
      "getApproved(uint256)": {
        "details": "See {IERC721-getApproved}."
      },
      "isApprovedForAll(address,address)": {
        "details": "See {IERC721-isApprovedForAll}."
      },
      "name()": {
        "details": "See {IERC721Metadata-name}."
      },
      "owner()": {
        "details": "Returns the address of the current owner."
      },
      "ownerOf(uint256)": {
        "details": "See {IERC721-ownerOf}."
      },
      "renounceOwnership()": {
        "details": "Leaves the contract without owner. It will not be possible to call `onlyOwner` functions anymore. Can only be called by the current owner. NOTE: Renouncing ownership will leave the contract without an owner, thereby removing any functionality that is only available to the owner."
      },
      "safeTransferFrom(address,address,uint256)": {
        "details": "See {IERC721-safeTransferFrom}."
      },
      "safeTransferFrom(address,address,uint256,bytes)": {
        "details": "See {IERC721-safeTransferFrom}."
      },
      "setApprovalForAll(address,bool)": {
        "details": "See {IERC721-setApprovalForAll}."
      },
      "supportsInterface(bytes4)": {
        "details": "See {IERC165-supportsInterface}."
      },
      "symbol()": {
        "details": "See {IERC721Metadata-symbol}."
      },
      "tokenURI(uint256)": {
        "details": "See {IERC721Metadata-tokenURI}."
      },
      "transferFrom(address,address,uint256)": {
        "details": "See {IERC721-transferFrom}."
      },
      "transferOwnership(address)": {
        "details": "Transfers ownership of the contract to a new account (`newOwner`). Can only be called by the current owner."
      }
    },
    "version": 1
  },
  "userdoc": {
    "kind": "user",
    "methods": {},
    "version": 1
  }
}