{
  "contractName": "MorpheusNftManagerInfo",
  "abi": [
    {
      "inputs": [
        {
          "internalType": "uint256",
          "name": "chainId_",
          "type": "uint256"
        }
      ],
      "stateMutability": "nonpayable",
      "type": "constructor"
    },
    {
      "anonymous": false,
      "inputs": [
        {
          "indexed": false,
          "internalType": "address",
          "name": "userAddress",
          "type": "address"
        },
        {
          "indexed": false,
          "internalType": "address payable",
          "name": "relayerAddress",
          "type": "address"
        },
        {
          "indexed": false,
          "internalType": "bytes",
          "name": "functionSignature",
          "type": "bytes"
        }
      ],
      "name": "MetaTransactionExecuted",
      "type": "event"
    },
    {
      "anonymous": false,
      "inputs": [
        {
          "indexed": true,
          "internalType": "address",
          "name": "previousOwner",
          "type": "address"
        },
        {
          "indexed": true,
          "internalType": "address",
          "name": "newOwner",
          "type": "address"
        }
      ],
      "name": "OwnershipTransferred",
      "type": "event"
    },
    {
      "inputs": [
        {
          "internalType": "uint256",
          "name": "",
          "type": "uint256"
        }
      ],
      "name": "authAddressList",
      "outputs": [
        {
          "internalType": "address",
          "name": "",
          "type": "address"
        }
      ],
      "stateMutability": "view",
      "type": "function"
    },
    {
      "inputs": [
        {
          "internalType": "address",
          "name": "",
          "type": "address"
        },
        {
          "internalType": "uint256",
          "name": "",
          "type": "uint256"
        }
      ],
      "name": "collectionList",
      "outputs": [
        {
          "internalType": "address",
          "name": "",
          "type": "address"
        }
      ],
      "stateMutability": "view",
      "type": "function"
    },
    {
      "inputs": [
        {
          "internalType": "address",
          "name": "userAddress",
          "type": "address"
        },
        {
          "internalType": "bytes",
          "name": "functionSignature",
          "type": "bytes"
        },
        {
          "internalType": "bytes32",
          "name": "sigR",
          "type": "bytes32"
        },
        {
          "internalType": "bytes32",
          "name": "sigS",
          "type": "bytes32"
        },
        {
          "internalType": "uint8",
          "name": "sigV",
          "type": "uint8"
        }
      ],
      "name": "executeMetaTransaction",
      "outputs": [
        {
          "internalType": "bytes",
          "name": "",
          "type": "bytes"
        }
      ],
      "stateMutability": "payable",
      "type": "function"
    },
    {
      "inputs": [],
      "name": "getDomainSeparator",
      "outputs": [
        {
          "internalType": "bytes32",
          "name": "",
          "type": "bytes32"
        }
      ],
      "stateMutability": "view",
      "type": "function"
    },
    {
      "inputs": [
        {
          "internalType": "address",
          "name": "user",
          "type": "address"
        }
      ],
      "name": "getNonce",
      "outputs": [
        {
          "internalType": "uint256",
          "name": "nonce",
          "type": "uint256"
        }
      ],
      "stateMutability": "view",
      "type": "function"
    },
    {
      "inputs": [
        {
          "internalType": "address",
          "name": "",
          "type": "address"
        },
        {
          "internalType": "uint256",
          "name": "",
          "type": "uint256"
        }
      ],
      "name": "itemTxList",
      "outputs": [
        {
          "internalType": "string",
          "name": "",
          "type": "string"
        }
      ],
      "stateMutability": "view",
      "type": "function"
    },
    {
      "inputs": [],
      "name": "owner",
      "outputs": [
        {
          "internalType": "address",
          "name": "",
          "type": "address"
        }
      ],
      "stateMutability": "view",
      "type": "function"
    },
    {
      "inputs": [],
      "name": "renounceOwnership",
      "outputs": [],
      "stateMutability": "nonpayable",
      "type": "function"
    },
    {
      "inputs": [
        {
          "internalType": "address",
          "name": "newOwner",
          "type": "address"
        }
      ],
      "name": "transferOwnership",
      "outputs": [],
      "stateMutability": "nonpayable",
      "type": "function"
    },
    {
      "inputs": [
        {
          "internalType": "address",
          "name": "userAddr_",
          "type": "address"
        },
        {
          "internalType": "address",
          "name": "contractAddr_",
          "type": "address"
        }
      ],
      "name": "addCollection",
      "outputs": [],
      "stateMutability": "nonpayable",
      "type": "function"
    },
    {
      "inputs": [
        {
          "internalType": "address",
          "name": "userAddr_",
          "type": "address"
        }
      ],
      "name": "getCollection",
      "outputs": [
        {
          "internalType": "address[]",
          "name": "",
          "type": "address[]"
        }
      ],
      "stateMutability": "view",
      "type": "function"
    },
    {
      "inputs": [
        {
          "internalType": "address",
          "name": "userAddr_",
          "type": "address"
        }
      ],
      "name": "clearCollection",
      "outputs": [],
      "stateMutability": "nonpayable",
      "type": "function"
    },
    {
      "inputs": [
        {
          "internalType": "address",
          "name": "userAddr_",
          "type": "address"
        },
        {
          "internalType": "string",
          "name": "txHash_",
          "type": "string"
        }
      ],
      "name": "addItemTx",
      "outputs": [],
      "stateMutability": "nonpayable",
      "type": "function"
    },
    {
      "inputs": [
        {
          "internalType": "address",
          "name": "userAddr_",
          "type": "address"
        }
      ],
      "name": "getItemTx",
      "outputs": [
        {
          "internalType": "string[]",
          "name": "",
          "type": "string[]"
        }
      ],
      "stateMutability": "view",
      "type": "function"
    },
    {
      "inputs": [
        {
          "internalType": "address",
          "name": "userAddr_",
          "type": "address"
        }
      ],
      "name": "clearItemTx",
      "outputs": [],
      "stateMutability": "nonpayable",
      "type": "function"
    },
    {
      "inputs": [
        {
          "internalType": "address",
          "name": "userAddr_",
          "type": "address"
        }
      ],
      "name": "reqAuth",
      "outputs": [],
      "stateMutability": "nonpayable",
      "type": "function"
    },
    {
      "inputs": [],
      "name": "getAuthReqList",
      "outputs": [
        {
          "internalType": "address[]",
          "name": "",
          "type": "address[]"
        }
      ],
      "stateMutability": "view",
      "type": "function"
    },
    {
      "inputs": [],
      "name": "clearAuthReqList",
      "outputs": [],
      "stateMutability": "nonpayable",
      "type": "function"
    }
  ],
  "bytecode": "0x608060405234801561001057600080fd5b5060405161163a38038061163a83398101604081905261002f91610133565b6040518060400160405280600f81526020016e6d6f7270686575736c6162732e696f60881b815250604051806040016040528060018152602001603160f81b81525082600061008261012f60201b60201c565b600080546001600160a01b0319166001600160a01b0383169081178255604051929350917f8be0079c531659141344cd1fd0a4f28419497f9722a3daafe3b4186f6b6457e0908290a3506040518060800160405280605281526020016115e860529139805160209182012084518583012084518584012060405161010a94869130910161014b565b6040516020818303038152906040528051906020012060018190555050505050610177565b3390565b600060208284031215610144578081fd5b5051919050565b9485526020850193909352604084019190915260608301526001600160a01b0316608082015260a00190565b611462806101866000396000f3fe6080604052600436106101095760003560e01c8063901d932a11610095578063cb86613f11610064578063cb86613f146102bf578063d0165ee6146102e1578063e40de88714610301578063ed24911d14610321578063f2fde38b1461033657610109565b8063901d932a1461023f578063909b8a371461025f578063abebdd651461027f578063ad3bc33a1461029f57610109565b806338f9b925116100dc57806338f9b925146101a657806366087992146101d3578063715018a6146101f35780638da5cb5b146102085780638f10181d1461022a57610109565b80630c53c51c1461010e5780630ccec615146101375780632d0335ab146101575780632e81890614610184575b600080fd5b61012161011c366004610eb1565b610356565b60405161012e91906111b8565b60405180910390f35b34801561014357600080fd5b50610121610152366004610f9c565b6104df565b34801561016357600080fd5b50610177610172366004610e65565b610598565b60405161012e919061116d565b34801561019057600080fd5b506101a461019f366004610e65565b6105b3565b005b3480156101b257600080fd5b506101c66101c1366004610e65565b610616565b60405161012e919061110d565b3480156101df57600080fd5b506101a46101ee366004610f3d565b610706565b3480156101ff57600080fd5b506101a4610747565b34801561021457600080fd5b5061021d6107d0565b60405161012e9190611077565b34801561023657600080fd5b506101a46107e0565b34801561024b57600080fd5b5061021d61025a366004610fc5565b61082d565b34801561026b57600080fd5b506101a461027a366004610e7f565b610857565b34801561028b57600080fd5b506101a461029a366004610e65565b610895565b3480156102ab57600080fd5b506101a46102ba366004610e65565b6108f5565b3480156102cb57600080fd5b506102d4610947565b60405161012e91906110c0565b3480156102ed57600080fd5b5061021d6102fc366004610f9c565b6109a9565b34801561030d57600080fd5b506102d461031c366004610e65565b6109e1565b34801561032d57600080fd5b50610177610a57565b34801561034257600080fd5b506101a4610351366004610e65565b610a5d565b60408051606081810183526001600160a01b038816600081815260026020908152908590205484528301529181018690526103948782878787610b1d565b6103b95760405162461bcd60e51b81526004016103b090611303565b60405180910390fd5b6001600160a01b0387166000908152600260205260409020546103dd906001610bc3565b6001600160a01b0388166000908152600260205260409081902091909155517f5845892132946850460bff5a0083f71031bc5bf9aadcd40f1de79423eac9b10b9061042d90899033908a9061108b565b60405180910390a1600080306001600160a01b0316888a604051602001610455929190611025565b60408051601f198184030181529082905261046f91611009565b6000604051808303816000865af19150503d80600081146104ac576040519150601f19603f3d011682016040523d82523d6000602084013e6104b1565b606091505b5091509150816104d35760405162461bcd60e51b81526004016103b090611252565b98975050505050505050565b600460205281600052604060002081815481106104fb57600080fd5b9060005260206000200160009150915050805461051790611398565b80601f016020809104026020016040519081016040528092919081815260200182805461054390611398565b80156105905780601f1061056557610100808354040283529160200191610590565b820191906000526020600020905b81548152906001019060200180831161057357829003601f168201915b505050505081565b6001600160a01b031660009081526002602052604090205490565b6105bb6107d0565b6001600160a01b03166105cc610bd6565b6001600160a01b0316146105f25760405162461bcd60e51b81526004016103b0906111cb565b6001600160a01b038116600090815260036020526040812061061391610cb0565b50565b6001600160a01b0381166000908152600460209081526040808320805482518185028101850190935280835260609492939192909184015b828210156106fa57838290600052602060002001805461066d90611398565b80601f016020809104026020016040519081016040528092919081815260200182805461069990611398565b80156106e65780601f106106bb576101008083540402835291602001916106e6565b820191906000526020600020905b8154815290600101906020018083116106c957829003601f168201915b50505050508152602001906001019061064e565b5050505090505b919050565b6001600160a01b038216600090815260046020908152604082208054600181018255908352918190208351610742939190910191840190610cce565b505050565b61074f610c32565b6001600160a01b03166107606107d0565b6001600160a01b0316146107865760405162461bcd60e51b81526004016103b0906112ce565b600080546040516001600160a01b03909116907f8be0079c531659141344cd1fd0a4f28419497f9722a3daafe3b4186f6b6457e0908390a3600080546001600160a01b0319169055565b6000546001600160a01b03165b90565b6107e86107d0565b6001600160a01b03166107f9610bd6565b6001600160a01b03161461081f5760405162461bcd60e51b81526004016103b0906111cb565b61082b60056000610cb0565b565b6005818154811061083d57600080fd5b6000918252602090912001546001600160a01b0316905081565b6001600160a01b0391821660009081526003602090815260408220805460018101825590835291200180546001600160a01b03191691909216179055565b61089d6107d0565b6001600160a01b03166108ae610bd6565b6001600160a01b0316146108d45760405162461bcd60e51b81526004016103b0906111cb565b6001600160a01b038116600090815260046020526040812061061391610d52565b600580546001810182556000919091527f036b6384b5eca791c62761152d0c79bb0604c104a5fb6f4eb0703f3154bb3db00180546001600160a01b0319166001600160a01b0392909216919091179055565b6060600580548060200260200160405190810160405280929190818152602001828054801561099f57602002820191906000526020600020905b81546001600160a01b03168152600190910190602001808311610981575b5050505050905090565b600360205281600052604060002081815481106109c557600080fd5b6000918252602090912001546001600160a01b03169150829050565b6001600160a01b038116600090815260036020908152604091829020805483518184028101840190945280845260609392830182828015610a4b57602002820191906000526020600020905b81546001600160a01b03168152600190910190602001808311610a2d575b50505050509050919050565b60015490565b610a65610c32565b6001600160a01b0316610a766107d0565b6001600160a01b031614610a9c5760405162461bcd60e51b81526004016103b0906112ce565b6001600160a01b038116610ac25760405162461bcd60e51b81526004016103b09061120c565b600080546040516001600160a01b03808516939216917f8be0079c531659141344cd1fd0a4f28419497f9722a3daafe3b4186f6b6457e091a3600080546001600160a01b0319166001600160a01b0392909216919091179055565b60006001600160a01b038616610b455760405162461bcd60e51b81526004016103b090611289565b6001610b58610b5387610c36565b610c94565b83868660405160008152602001604052604051610b78949392919061119a565b6020604051602081039080840390855afa158015610b9a573d6000803e3d6000fd5b505050602060405103516001600160a01b0316866001600160a01b031614905095945050505050565b6000610bcf8284611344565b9392505050565b600033301415610c2d57600080368080601f0160208091040260200160405190810160405280939291908181526020018383808284376000920191909152505050503601516001600160a01b031691506107dd9050565b503390565b3390565b60006040518060800160405280604381526020016113ea6043913980516020918201208351848301516040808701518051908601209051610c779501611176565b604051602081830303815290604052805190602001209050919050565b6000610c9e610a57565b82604051602001610c7792919061105c565b50805460008255906000526020600020908101906106139190610d70565b828054610cda90611398565b90600052602060002090601f016020900481019282610cfc5760008555610d42565b82601f10610d1557805160ff1916838001178555610d42565b82800160010185558215610d42579182015b82811115610d42578251825591602001919060010190610d27565b50610d4e929150610d70565b5090565b50805460008255906000526020600020908101906106139190610d85565b5b80821115610d4e5760008155600101610d71565b80821115610d4e576000610d998282610da2565b50600101610d85565b508054610dae90611398565b6000825580601f10610dc05750610613565b601f0160209004906000526020600020908101906106139190610d70565b600067ffffffffffffffff80841115610df957610df96113d3565b604051601f8501601f191681016020018281118282101715610e1d57610e1d6113d3565b604052848152915081838501861015610e3557600080fd5b8484602083013760006020868301015250509392505050565b80356001600160a01b038116811461070157600080fd5b600060208284031215610e76578081fd5b610bcf82610e4e565b60008060408385031215610e91578081fd5b610e9a83610e4e565b9150610ea860208401610e4e565b90509250929050565b600080600080600060a08688031215610ec8578081fd5b610ed186610e4e565b9450602086013567ffffffffffffffff811115610eec578182fd5b8601601f81018813610efc578182fd5b610f0b88823560208401610dde565b9450506040860135925060608601359150608086013560ff81168114610f2f578182fd5b809150509295509295909350565b60008060408385031215610f4f578182fd5b610f5883610e4e565b9150602083013567ffffffffffffffff811115610f73578182fd5b8301601f81018513610f83578182fd5b610f9285823560208401610dde565b9150509250929050565b60008060408385031215610fae578182fd5b610fb783610e4e565b946020939093013593505050565b600060208284031215610fd6578081fd5b5035919050565b60008151808452610ff5816020860160208601611368565b601f01601f19169290920160200192915050565b6000825161101b818460208701611368565b9190910192915050565b60008351611037818460208801611368565b60609390931b6bffffffffffffffffffffffff19169190920190815260140192915050565b61190160f01b81526002810192909252602282015260420190565b6001600160a01b0391909116815260200190565b6001600160a01b038481168252831660208201526060604082018190526000906110b790830184610fdd565b95945050505050565b6020808252825182820181905260009190848201906040850190845b818110156111015783516001600160a01b0316835292840192918401916001016110dc565b50909695505050505050565b6000602080830181845280855180835260408601915060408482028701019250838701855b8281101561116057603f1988860301845261114e858351610fdd565b94509285019290850190600101611132565b5092979650505050505050565b90815260200190565b93845260208401929092526001600160a01b03166040830152606082015260800190565b93845260ff9290921660208401526040830152606082015260800190565b600060208252610bcf6020830184610fdd565b60208082526021908201527f4d6f7270686575734e66744d616e61676572496e666f3a206e6f74206f776e656040820152603960f91b606082015260800190565b60208082526026908201527f4f776e61626c653a206e6577206f776e657220697320746865207a65726f206160408201526564647265737360d01b606082015260800190565b6020808252601c908201527f46756e6374696f6e2063616c6c206e6f74207375636365737366756c00000000604082015260600190565b60208082526025908201527f4e61746976654d6574615472616e73616374696f6e3a20494e56414c49445f5360408201526424a3a722a960d91b606082015260800190565b6020808252818101527f4f776e61626c653a2063616c6c6572206973206e6f7420746865206f776e6572604082015260600190565b60208082526021908201527f5369676e657220616e64207369676e617475726520646f206e6f74206d6174636040820152600d60fb1b606082015260800190565b6000821982111561136357634e487b7160e01b81526011600452602481fd5b500190565b60005b8381101561138357818101518382015260200161136b565b83811115611392576000848401525b50505050565b6002810460018216806113ac57607f821691505b602082108114156113cd57634e487b7160e01b600052602260045260246000fd5b50919050565b634e487b7160e01b600052604160045260246000fdfe4d6574615472616e73616374696f6e2875696e74323536206e6f6e63652c616464726573732066726f6d2c62797465732066756e6374696f6e5369676e617475726529a264697066735822122092b3b72205a007b67b121a6ddf8d0283f8888926b5a72c7de7c0f4137c69978164736f6c63430008000033454950373132446f6d61696e28737472696e67206e616d652c737472696e672076657273696f6e2c75696e7432353620636861696e49642c6164647265737320766572696679696e67436f6e747261637429",
  "immutableReferences": {},
  "source": "// SPDX-License-Identifier: MIT\n\npragma solidity ^0.8.0;\n\nimport \"@openzeppelin/contracts/access/Ownable.sol\";\nimport \"./EIP712MetaTransaction.sol\";\n\ncontract MorpheusNftManagerInfo is Ownable, EIP712MetaTransaction {\n    \n    string private constant DOMAIN_NAME = \"morpheuslabs.io\";\n    string private constant DOMAIN_VERSION = \"1\";\n\n    // One user address can create multiple NFT contract addresses\n    mapping(address => address[]) public collectionList;\n\n    // One user address can add multiple NFT token items\n    mapping(address => string[]) public itemTxList;\n\n    // Store user's address for authorization to add item\n    address[] public authAddressList;\n\n    constructor(uint256 chainId_) \n        EIP712Base(DOMAIN_NAME, DOMAIN_VERSION, chainId_) {\n    }\n\n    modifier isOwner() {\n        require(\n            msgSender() == owner(), \n            \"MorpheusNftManagerInfo: not owner\"\n        );\n        _;\n    }\n    \n    function addCollection(address userAddr_, address contractAddr_) public {\n        collectionList[userAddr_].push(contractAddr_);\n    }\n\n    function getCollection(address userAddr_) public view returns (address[] memory) {\n        return collectionList[userAddr_];\n    }\n\n    function clearCollection(address userAddr_) public isOwner {\n        delete collectionList[userAddr_];\n    }\n\n    function addItemTx(address userAddr_, string memory txHash_) public {\n        itemTxList[userAddr_].push(txHash_);\n    }\n\n    function getItemTx(address userAddr_) public view returns (string[] memory) {\n        return itemTxList[userAddr_];\n    }\n\n    function clearItemTx(address userAddr_) public isOwner {\n        delete itemTxList[userAddr_];\n    }\n\n    // When user submits request for authorization to add item, this method is invoked\n    function reqAuth(address userAddr_) public {\n        authAddressList.push(userAddr_);\n    }\n\n    // The owner invokes this method to get the list of addresses requesting for authorization\n    function getAuthReqList() public view returns (address[] memory) {\n        return authAddressList;\n    }\n\n    // The owner invokes this method to clear the \"authAddressList\" after having invoked the method MorpheusNftManager.addAuthorized\n    function clearAuthReqList() public isOwner {\n        delete authAddressList;\n    }\n}\n",
  "sourcePath": "/home/trung/Work/reference/morphe/task/dApp/ml-NFT-tool/erc721/contracts/MorpheusNftManagerInfo.sol",
  "compiler": {
    "name": "solc",
    "version": "0.8.0+commit.c7dfd78e.Emscripten.clang"
  },
  "schemaVersion": "3.3.4",
  "updatedAt": "2021-04-19T13:17:48.116Z",
  "devdoc": {
    "kind": "dev",
    "methods": {
      "owner()": {
        "details": "Returns the address of the current owner."
      },
      "renounceOwnership()": {
        "details": "Leaves the contract without owner. It will not be possible to call `onlyOwner` functions anymore. Can only be called by the current owner. NOTE: Renouncing ownership will leave the contract without an owner, thereby removing any functionality that is only available to the owner."
      },
      "transferOwnership(address)": {
        "details": "Transfers ownership of the contract to a new account (`newOwner`). Can only be called by the current owner."
      }
    },
    "version": 1
  },
  "userdoc": {
    "kind": "user",
    "methods": {},
    "version": 1
  }
}